:03000000020800F3
:0C080000787FE4F6D8FD758139020847C6
:0E0A3600C10002210009023500000237000055
:0C0A450075C33743B104D2AF43C3402255
:0409C100AD07AC06CC
:1009C500C2008CC53000FDAF39C2008DC53000FDB9
:0B09D500EFFE7C00E42539FFEC3EFE45
:0109E00022F4
:03004B00020A01A5
:100A0100C0E0C0D075D000C007AFC4EF248070052E
:0C0A110085C539D200D007D0D0D0E0322B
:030A5600D2942215
:10099E0053C3BF53C3F343C340C294EF7F00C45449
:1009AE00F0FE1209C1D294EF7806CEC313CE13D83F
:0209BE00F9FF3F
:0109C0002214
:050A5100D292D29322B5
:100A1D0053C3BF43C30443C340C292C2931209C11F
:080A2D008E0A8F0BD293D292C6
:010A3500229E
:04091700AB07AA067A
:10091B000536E536700205351425E02423F8A602CA
:10092B0008A603AE35AF36AC21AD2212088C8C3540
:10093B008D36E53625E02423F8E6FE08E6FFC3EB0B
:10094B009FFFEA9EFEEF2538F538EE3537F537FE7B
:0D095B00AF387C007D0812088CEE540FFEB2
:01096800226C
:1009E100E4FDFCC3ED9FEC9E5015E4FBFA0BBB004C
:0F09F100010ABA01F8BB7EF50DBD00010C80E4D0
:010A000022D3
:10096900E4FBFAF582F583F508F509C201120A4597
:10097900120A56120A517F017E0012099EAA06AB7D
:1009890007EB7802C333CE33CED8F9F5828E83FFD5
:05099900120A1D80E1BF
:10080C00020969E493A3F8E493A34003F68001F290
:10081C0008DFF48029E493A3F85407240CC8C333ED
:10082C00C4540F4420C8834004F456800146F6DFBC
:10083C00E4800B0102040810204080900A36E47E0C
:10084C00019360BCA3FF543F30E509541FFEE493B1
:10085C00A360010ECF54C025E060A840B8E493A378
:10086C00FAE493A3F8E493A3C8C582C8CAC583CAA3
:10087C00F0A3C8C582C8CAC583CADFE9DEE780BE5B
:010A440000B1
:10088C00C2D5EC30E709B2D5E4C39DFDE49CFCEE87
:10089C0030E715B2D5E4C39FFFE49EFE1208C2C335
:1008AC00E49DFDE49CFC80031208C230D507C3E430
:0608BC009FFFE49EFE22F6
:1008C200BC000BBE0029EF8DF084FFADF022E4CC1A
:1008D200F875F008EF2FFFEE33FEEC33FCEE9DECE3
:1008E200984005FCEE9DFE0FD5F0E9E4CEFD22ED29
:1008F200F8F5F0EE8420D21CFEADF075F008EF2F73
:10090200FFED33FD4007985006D5F0F222C398FD63
:050912000FD5F0EA2200
:00000001FF
