:030000000202C534
:1002000075A000759000519C519C5136519C519C99
:10021000519C78811202ADEB24805173519C7881FE
:100220005193519C78901202ADEB24C05173519CB4
:100230007890519380FE75A038C280C281D28251DD
:100240009CC282519C75A00CC280C281D282519CFA
:10025000C282519C75A001C280C281D282519CC2CF
:1002600082519C75A006C280C281D282519CC282FA
:10027000519C22F5A0C280C281D282519CC282517F
:100280009C22F5A0D280C281D282519CC282519C14
:10029000519C22E6600551820880F822C000C0010E
:1002A000780179FFD9FED8FAD001D00022C0007BB6
:1002B00000E660040B0880F97410C2D79B75F00249
:1002C00084FBD0002278817631087637087664087E
:1002D0007630087637087630087630087632087639
:1002E000330876007990774B09776109777209773F
:1002F0006109776E09772009774309776809776183
:0C03000009777409776509770012020084
:00000001FF
