:03000000020200F9
:1002000075A00075900071F171F1718671F171F155
:1002100071F1748071C371F190041E71E371F15139
:100220007674C071C371F190042771E371F151B715
:100230009113748071C371F190042F71E371F151C6
:10024000FD74C071C371F190043771E371F17143B2
:10025000911380BEFAC4540FF875F00A846002242A
:1002600006243028F8EA540FF975F00A8460022455
:1002700006243029F922741A5154E871D271F1E937
:1002800071D271F1742071D271F175F02BE5F051DA
:1002900054E871D271F171F1E971D271F174207188
:1002A000D271F175D034E5D05154E871D271F17149
:1002B000F1E971D271F12278ABE85154E871D27151
:1002C000F171F1E971D271F171F1742071D271F1B2
:1002D00079BCE95154E871D271F171F1E971D271CF
:1002E000F171F1742071D271F17ADEEA5154E87142
:1002F000D271F171F1E971D271F171F1227B12EBDE
:100300005154E871D271F171F1E971D271F1742037
:0403100071D271F144
:100314007C23EC5154E871D271F171F1E971D2711D
:10032400F171F1742071D271F171F17D34ED515498
:10033400E871D271F171F1E971D271F171F1227E3A
:1003440045EE5154E871D271F171F1E971D271F154
:10035400742071D271F171F17F56EF5154E871D26A
:1003640071F171F1E971D271F171F1742071D2718D
:10037400F1E5815154E871D271F171F1E971D271F1
:10038400F12275A038C280C281D28271F1C2827119
:10039400F175A00CC280C281D28271F1C28271F166
:1003A40075A001C280C281D28271F1C28271F175DD
:1003B400A006C280C281D28271F1C28271F122F59B
:1003C400A0C280C281D28271F1C28271F122F5A0F1
:1003D400D280C281D28271F1C28271F171F122C0E4
:1003E400E0E493600571D2A380F7D0E022C000C09E
:1003F40001780179FFD9FED8FAD001D00022C001DA
:10040400C0027AB979FFD9FEDAFAD002D00122C04B
:100414000078649102D8FCD0002241425053572006
:100424003D200052303132203D20005233343520FB
:0B0434003D20005236375350203D00A1
:00000001FF
