:03000000020200F9
:1002000075A00075900075999975888875777775D0
:10021000666675555551CE51CE1202E8F54E120262
:10022000E8F54F1202F7F550516351CE51CE51CE41
:10023000748151A051CE90040051C051CEE550912F
:1002400032E55351AFE55251AF74C151A051CE9038
:10025000040A51C0A850E69132E55351AFE552511E
:10026000AF809D75A038C280C281D28251CEC28239
:1002700051CE75A00CC280C281D28251CEC28251B1
:10028000CE75A001C280C281D28251CEC28251CE2F
:1002900075A006C280C281D28251CEC28251CE22C6
:1002A000F5A0C280C281D28251CEC28251CE22F547
:1002B000A0D280C281D28251CEC28251CE51CE22F2
:1002C000C0E0E493600551AFA380F7D0E022C00006
:1002D000C001780179FFD9FED8FAD001D000227A86
:1002E000C879FFD9FEDAFA227590FF7B641202DF2B
:0D02F000DBFBE590540F22E54EC4454F2284
:100400004C6F636174696F6E3A00436F6E74656E12
:1004100074733A00E72437F722E72430F7221204F6
:100420001480201204148028120419801612041952
:10043000801ED2D2C2D37952FB540FF7C3940A5014
:10044000DD40E509EBC4540FF7C3940A50D540DDF5
:03045000C2D222F3
:00000001FF
