:100E9500C1000661000000000000106741444320C6
:100EA5006368616E6E656C2D30303A000477206D95
:100EB50056001021414443206368616E6E656C2DB8
:100EC50030313A001031414443206368616E6E65EC
:100ED5006C2D31313A001041414443206368616E05
:100EE5006E656C2D31323A001051414443206368E0
:0A0EF500616E6E656C2D31333A001A
:100F0000E4F5A0C282C280C2817F38FE120FF77F53
:100F1000047E00120F7D7F067E00120FF77F047E95
:100F200000120F7D7F0C7E00120FF77F047E0012EF
:100F30000F7D7F017E00120FF77F047E00120F7D70
:070F40007F807E00020FF725
:040F79007FCD7E07A3
:100F7D00E4FDFCC3ED9FEC9E5015E4FBFA0BBB00AA
:0F0F8D00010ABA01F8BB7EF50DBD00010C80E42E
:010F9C002232
:100D5300120803120A3C8E088F097B007A0079611E
:100D63008E0E8F0F8B108A1189127C277D10120B28
:100D73000AEF2430120AD6AE0EAF0F7C277D101275
:100D83000B0A7E037FE8CFCDCFCECCCE120B0AEF7A
:100D93002430AB10AA11A912900001120AE8AE0E7A
:100DA300AF0F7C037DE8120B0A7E007F64CFCDCFAB
:100DB300CECCCE120B0AEF2430AB10AA11A912909D
:100DC3000002120AE8AE0EAF0F7C007D64120B0A1C
:100DD3007E007F0ACFCDCFCECCCE120B0AEF2430CC
:100DE300AB10AA11A912900003120AE8AE0EAF0FBE
:100DF3007C007D0A120B0AED2430AB10AA11A91254
:060E0300900004020AE861
:040FF3007F807E007D
:100FF700C280C281D2828FA07F0A7E00120F7DC27B
:02100700822243
:10100900D280C281D2828FA07F0A7E00120F7DC258
:02101900822231
:0D0F47007FC07E00120FF77B007A007961F9
:100F54008B0E8A0F8910AB0EAA0FA910120ABD605E
:100F6400130510E5107002050F14F9120ABDFF12E3
:050F7400100980E222DB
:0C101B0075C33343B104D2AF75C3732218
:040F9D00AD07AC06EA
:100FA100C2008CC53000FDAF7BC2008DC53000FD95
:0B0FB100EFFE7C00E4257BFFEC3EFE21
:010FBC002212
:03004B00020FBDE4
:100FBD00C0E0C0D075D000C007AFC4EF248070056D
:0C0FCD0085C57BD200D007D0D0D0E03228
:03102700D294223E
:100FD900EF7F00C454F0FEC294120F9DD294EF78B3
:090FE90006CEC313CE13D8F9FFA4
:010FF20022DC
:100B6D00E4F508F509F50AF50B750C02750D58122B
:100B7D00101B121027120F00E4FFFE120FD98E0862
:100B8D008F09AC08AD09E4120A037B9D7A73794E87
:100B9D0078401208F8C004C005C006C007AC0CAD03
:100BAD000DE4120A03A804A905AA06AB07D007D0C5
:100BBD0006D005D004120D53120FF37B007A007985
:100BCD0067120F54120F477B007A007977120F547A
:100BDD00120F797F017E00120FD98E088F09AC0894
:100BED00AD09E4120A037B9D7A73794E78401208A1
:100BFD00F8C004C005C006C007AC0CAD0DE4120A68
:100C0D0003A804A905AA06AB07D007D006D005D0C6
:100C1D0004120D53120FF37B007A007921120F5439
:100C2D00120F477B007A007977120F54120F797FDC
:100C3D000B7E00120FD98E088F09AC08AD09E41296
:100C4D000A037B9D7A73794E78401208F8C004C070
:100C5D0005C006C007AC0CAD0DE4120A03A804A92B
:100C6D0005AA06AB07D007D006D005D004120D5348
:100C7D00120FF37B007A007931120F54120F477B5C
:100C8D00007A007977120F54120F797F0C7E0012C3
:100C9D000FD98E088F09AC08AD09E4120A037B9DAC
:100CAD007A73794E78401208F8C004C005C006C0AA
:100CBD0007AC0CAD0DE4120A03A804A905AA06ABF6
:100CCD0007D007D006D005D004120D53120FF37BB9
:100CDD00007A007941120F54120F477B007A007988
:100CED0077120F54120F797F0D7E00120FD98E08D7
:100CFD008F09AC08AD09E4120A037B9D7A73794E16
:100D0D0078401208F8C004C005C006C007AC0CAD91
:100D1D000DE4120A03A804A905AA06AB07D007D053
:100D2D0006D005D004120D53120FF37B007A007913
:100D3D0051120F54120F477B007A007977120F541E
:060D4D00120F79020B8574
:10080000020AA8E86480F8E933E83360110460F074
:10081000ED33EC337009E8FCE9FDEAFEEBFF22045E
:1008200060DED3EB9FEA9EE99DE8C2E78CF0C2F759
:1008300095F0400CE8CCF8E9CDF9EACEFAEBCFFB25
:10084000120A7385D0F05804700320D5B3E8047001
:10085000075002B2D5020AB292D5EC0460F7E4CC9C
:10086000C0E0C398F8603B94186008400DD0E0FBEE
:10087000020A8AE4FBFAC9FC8028E830E406E4C9ED
:10088000FBE4CAFCE830E305E4C9CACBFCE8540742
:100890006010F8C3E913F9EA13FAEB13FBEC13FC4D
:1008A000D8F130F52FC3E49CFCEF9BFFEE9AFEEDF0
:1008B00099FDD0E0FBEF4E4D4C701222DB03020A93
:1008C000AFEC2CFCEF33FFEE33FEED33FDED30E704
:1008D000EB020A8AEF2BFFEE3AFEED39FDD0E0FB8A
:1008E00050130BBB0003020AB2ED13FDEE13FEEF33
:0808F00013FFEC13FC020A8A5D
:1008F800EC4D6011E8497017ED33EC3304600DE4FA
:10090800FCFFFEFD22E933E8330470F8020AA8125E
:100918000A7358046009E4CC24815006285009025F
:100928000AB2284003020AAFC0E0EB4A7044B9801B
:1009380006D0E0FB020A9EEF4E701CBD8008EBFF5C
:10094800EAFEE9FD80EBE98DF0A4FEE5F00209E19D
:10095800E9CDF9EAFEEBFFEF89F0A4FCE5F0CE89DA
:10096800F0A42EFFE435F0CD89F0A42DFEE435F097
:100978008067EF4E7005BD80D780C3EF8BF0A4ACC5
:10098800F0EE8BF0A42CFCE435F0F8EF8AF0A42C00
:10099800E5F038FCE433CB8DF0A42CFCE5F03BF813
:1009A800EE8AF0A42CFCE5F038F8E433CF89F0A403
:1009B8002CFCE5F038CF3400CE89F0A42FFFE5F009
:1009C8003EFEE433C98DF0A42EFEE5F039CD8AF061
:1009D800A42FFFE5F03EFEE43DFD33D0E0FB5007D9
:1009E8000BBB000F020AB2EC2CFCEF33FFEE33FE18
:0609F800ED33FD020A8A46
:1009FE0075F020800E75F010800575F0087D007E74
:100A0E00007F003392D530D503120B5FEC334010CC
:100A1E00EF33FFEE33FEED33FDEC33FCD5F0ED227C
:0E0A2E00E5F0247EA2D513CC92E7CDCEFF22B8
:100A3C00EDD2E7CD33EC3392D524814006E4FFFEB2
:100A4C00FDFC22FCE4CFCECDCC24E0501174FF8011
:100A5C00EDC3CC13CCCD13CDCE13CECF13CF0470AE
:070A6C00F030D5DE020B5F44
:100A7300E9D2E7C933E833F892D5EDD2E7CD33ECC9
:070A830033FC5002B2D52242
:100A8A00EC30E7100FBF000C0EBE00080DBD0004CD
:100A9A000BEB6014A2D5EB13FCED92E7FD2274FF79
:100AAA00FCFDFEFF22E480F8A2D574FF13FC7D80D2
:030ABA00E480EFE6
:03000000020E09E4
:0C0E0900787FE4F6D8FD75817B020E5066
:100ABD00BB010689828A83E0225002E722BBFE0237
:090ACD00E32289828A83E493226A
:100AD600BB010689828A83F0225002F722BBFE01FF
:020AE600F322F9
:100AE800F8BB010DE58229F582E5833AF583E8F044
:100AF800225006E92582C8F622BBFE05E92582C8F0
:020B0800F222D7
:100B0A00BC000BBE0029EF8DF084FFADF022E4CCCF
:100B1A00F875F008EF2FFFEE33FEEC33FCEE9DEC98
:100B2A00984005FCEE9DFE0FD5F0E9E4CEFD22EDDE
:100B3A00F8F5F0EE8420D21CFEADF075F008EF2F28
:100B4A00FFED33FD4007985006D5F0F222C398FD19
:050B5A000FD5F0EA22B6
:0E0B5F00C3E49FFFE49EFEE49DFDE49CFC22A7
:100E1500020B6DE493A3F8E493A34003F68001F27B
:100E250008DFF48029E493A3F85407240CC8C333DE
:100E3500C4540F4420C8834004F456800146F6DFAD
:100E4500E4800B0102040810204080900E95E47E9A
:100E5500019360BCA3FF543F30E509541FFEE493A2
:100E6500A360010ECF54C025E060A840B8E493A369
:100E7500FAE493A3F8E493A3C8C582C8CAC583CA94
:100E8500F0A3C8C582C8CAC583CADFE9DEE780BE4C
:010EFF0000F2
:00000001FF
